:0400000080312828FB
:100008007E14803100308600003087000B1F0D28D9
:100018000E2826284E01991C122813281B288F1CED
:10002800162817281B289F31A42780312628191C39
:100038001E281F2826280F1C2228232826289F31FF
:10004800A82780317E10090080312A28F701F8019D
:10005800F9014101EA01EB01EC01ED0120308400D6
:10006800013085001E30903100208031A03084009E
:100078000130850050309031002080317E104001E1
:100088009531D62D4101C101400161084101C500EA
:10009800400160084101C40040015F084101C300FC
:1000A80040015E084101C20045084001C400410109
:1000B80044084001C300410143084001C200410116
:1000C80042084001C1000030C8000030C7000030BD
:1000D800C6000030C5009631D02680310318752837
:1000E80076289B2801304101C10045084001A30042
:1000F800410144084001A200410143084001A10018
:10010800410142084001A0008731F42780314001B5
:1001180023084101C500400122084101C4004001F3
:1001280021084101C300400120084101C2004101EA
:10013800C601C701420137084101B2004201360831
:100148004101B10041080319AA28AB28BB2841087E
:10015800031DAF28B028B5282B30A6000030A70013
:10016800B9282D30A6000030A7002608C100450890
:100178004001A300410144084001A2004101430895
:100188004001A100410142084001A00096315126DA
:100198008031400120032104031DD328D4280829D5
:1001A800410141080319D928DA28E6284108430102
:1001B800A000FF304101B107FF30B23D0130C60059
:1001C8000030C7004608A03EF4000030F500A0301B
:1001D800F6009031B9208031FD304101B107FF3080
:1001E800B23D40015D08B2005C08B100A030B30028
:1001F800410132084001B500410131084001B40015
:10020800923109228031082F410145084001A3009D
:10021800410144084001A200410143084001A100F6
:10022800410142084001A000963151268031400129
:1002380020082104031D212922293F2941014108C1
:10024800031927292829342941084301A000FF3030
:100258004101B107FF30B23D0130C6000030C70090
:100268004608A03EF4000430F500A030F6009031B6
:10027800B9208031F0283F304101CB008030CA00DE
:100288000030C9000030C800AF01B0014508400186
:10029800A300410144084001A20041014308400174
:1002A800A100410142084001A0000030A700003031
:1002B800A6000030A5000030A40093313D23803112
:1002C800031867296829BC2A762941013608CB001A
:1002D8003508CA003408C9003308C8000130AF0720
:1002E8000030B03D41304001AA002030A900003064
:1002F800A8000030A70041014B084001AE004101B1
:100308004A084001AD00410149084001AC004101E3
:1003180048084001AB008D31C525803140012A08CD
:100328004101B600400129084101B50040012808F3
:100338004101B400400127084101B30033084202DB
:100348004001E30041013408433B4001E40041011E
:100358003508443B4001E50041013608453B400172
:10036800E6006608A3006508A2006408A100630807
:10037800A0009031A32080314001A31BD12923087C
:10038800031DD2292208031DD2292108031DD229C1
:1003980002302002031CD129D229692941013608DB
:1003A8004001C400410135084001C300410134083F
:1003B8004001C200410133084001C1004101450824
:1003C8004001C800410144084001C70041014308F9
:1003D8004001C600410142084001C5009631D026BF
:1003E8008031031CF829F92969294101480842028A
:1003F8004001E30041014908433B4001E400410159
:100408004A08443B4001E50041014B08453B400197
:10041800E6006608A3006508A2006408A100630856
:10042800A0009031A32080314001A31B2A2A230871
:10043800031D292A2208031D292A2108031D292A08
:10044800023020020318292A2A2A952A41014B083A
:10045800C5004A08C4004908C3004808C200BC2AAD
:1004680041304001B1002030B0000030AF00003012
:10047800AE0041014B084001B50041014A08400166
:10048800B400410149084001B30041014808400156
:10049800B2008A3115228031400131084101CB0078
:1004A800400130084101CA0040012F084101C9003C
:1004B80040012E084101C800FF30AF07FF30B03DB2
:1004C800480842024001E30041014908433B40011A
:1004D800E40041014A08443B4001E50041014B0862
:1004E800453B4001E6006608A3006508A2006408D1
:1004F800A1006308A0009031A32080314001A31B14
:10050800942A2308031D932A2208031D932A2108ED
:10051800031D932A023020020318932A942A952A4D
:100528002A2A410145084001C4004101440840010C
:10053800C300410143084001C20041014208400193
:10054800C10041014B084001C80041014A0840016F
:10055800C700410149084001C6004101480840015F
:10056800C5009631D0268031031CBB2ABC2A342A08
:10057800400162084101A9002908AA00F81BC52A00
:10058800C62ACB2A7808A3007708A200CF2A06300B
:10059800A2000030A3002308AE002208AD000130FD
:1005A800AD070030AE3D66302A06031DDC2ADD2A81
:1005B800F52AB01FE02AE12AEB2A3F30CB00803031
:1005C800CA000030C9000030C800AF01B001673070
:1005D80029060319F02AF12AF52A2F08AD07300851
:1005E800AE3DB701B8014508BC004408BB0043084C
:1005F800BA004208B9004B08B6004A08B5004908D5
:10060800B4004808B300DF2B41014B084001B1009A
:1006180041014A084001B000410149084001AF00CA
:10062800410148084001AE0041013C084001B500C5
:1006380041013B084001B40041013A084001B300C0
:10064800410139084001B2008A3115228031400148
:100658003108CB003008CA002F08C9002E08C8008E
:1006680087310927803140014B084101C000400112
:100678004A084101BF00400149084101BE0040014C
:1006880048084101BD0040084001A30041013F085E
:100698004001A20041013E084001A10041013D087E
:1006A8004001A0009431F424803140012108410127
:1006B800AC00400120084101AB004B084001AE00EE
:1006C80041014A084001AD00410149084001AC0020
:1006D800410148084001AB00410140084001AA001F
:1006E80041013F084001A90041013E084001A8001E
:1006F80041013D084001A7008D31C52580314001E9
:100708002A08C4002908C3002808C2002708C10015
:1007180041013C084001C80041013B084001C700B5
:1007280041013A084001C600410139084001C500AD
:1007380091310E218031400144084101BC00400143
:1007480043084101BB00400142084101BA00400191
:1007580041084101B90041304001B1002030B000EA
:100768000030AF000030AE0041014B084001B50039
:1007780041014A084001B400410149084001B30061
:10078800410148084001B2008A31152280314001F8
:1007980031084101CB00400130084101CA00400145
:1007A8002F084101C90040012E084101C80001304D
:1007B800B7070030B83D3808803A4001E3004101EE
:1007C8002E08803A40016302031DED2B41012D08DC
:1007D8003702031CF02BF12B082B40304001AA00F4
:1007E800A030A9000030A8000030A70041014B0844
:1007F8004001AE0041014A084001AD0041014908ED
:100808004001AC00410148084001AB008D31C525CD
:10081800803140012A084101C000400129084101F6
:10082800BF00400128084101BE00400127084101DE
:10083800BD003C084001C40041013B084001C30021
:1008480041013A084001C200410139084001C10094
:10085800410140084001C80041013F084001C7006C
:1008680041013E084001C60041013D084001C50064
:100878009631D02680310318422C432C4D2C003061
:100888004101C0000030BF000030BE000030BD0094
:10089800812C41013C084001A30041013B08400173
:1008A800A20041013A084001A10041013908400174
:1008B800A000410140084001A70041013F08400154
:1008C800A60041013E084001A50041013D08400144
:1008D800A40093313D238031031C732C742C812C8C
:1008E80041012B18782C792C812C0030C000003065
:1008F800BF000030BE000030BD004101400840018B
:10090800A30041013F084001A20041013E08400107
:10091800A10041013D084001A000410145084001F6
:10092800A700410144084001A600410143084001D5
:10093800A500410142084001A4008B31B923803150
:10094800400123084101BC00400122084101BB00CD
:10095800400121084101BA00400120084101B900C5
:100968003C084001C40041013B084001C30041016B
:100978003A084001C200410139084001C100413034
:10098800AA002030A9000030A8000030A7004101CB
:1009980036084001AE00410135084001AD00410173
:1009A80034084001AC00410133084001AB008D31EF
:1009B800C525803140012A08C8002908C700280831
:1009C800C6002708C5009631D0268031031CED2CBF
:1009D800EE2C292D01304101AF070030B03D4130E8
:1009E8004001AA002030A9000030A8000030A7006C
:1009F800410136084001AE00410135084001AD0013
:100A0800410134084001AC00410133084001AB000A
:100A18008D31C525803140012A084101B6004001C9
:100A280029084101B500400128084101B4004001EE
:100A380027084101B30066302A06031D242D252D01
:100A4800292D0130AD070030AE3D41013608CB00FD
:100A58003508CA003408C9003308C8003008A100A6
:100A68002F08A000A801A401A501B701B801822E92
:100A780041014B084001B10041014A084001B00062
:100A8800410149084001AF00410148084001AE005A
:100A980041013C084001B50041013B084001B40058
:100AA80041013A084001B300410139084001B20050
:100AB8008A311522803140013108CB003008CA0044
:100AC8002F08C9002E08C800873109278031400146
:100AD8004B084101C00040014A084101BF004001E4
:100AE80049084101BE00400148084101BD004008D5
:100AF8004001A30041013F084001A20041013E0816
:100B08004001A10041013D084001A0009431F424B6
:100B1800803140012108803AE30080306302031DE0
:100B2800972D0A30200203189A2D9B2DB72D4101CD
:100B380040084001A30041013F084001A2004101D3
:100B48003E084001A10041013D084001A000943148
:100B5800F4248031400121084101AC004001200803
:100B68004101AB00BC2D09304101AB000030AC00A5
:100B78002808031DC02DC12DEA2DA11FC42DC52D88
:100B8800EA2D4608A03E8600013087002E308100FD
:100B98000130C6070030C73DFF30B107FF30B23D16
:100BA8000130A800EA2D4608A03E860001308700E3
:100BB800303081000130C6070030C73DFF30B10733
:100BC800FF30B23DFF30A407FF30A53D24082504BF
:100BD800031DEF2DF02DD72D4608A03E86000130CD
:100BE80087002B08303E81000130C6070030C73D22
:100BF800FF30B107FF30B23D4B084001AE00410164
:100C08004A084001AD00410149084001AC004101DA
:100C180048084001AB00410140084001AA004101D9
:100C28003F084001A90041013E084001A8004101D8
:100C38003D084001A7008D31C525803140012A08B3
:100C4800C4002908C3002808C2002708C1004101C0
:100C58003C084001C80041013B084001C700410170
:100C68003A084001C600410139084001C5009131E8
:100C78000E218031400144084101BC004001430875
:100C88004101BB00400142084101BA00400141084E
:100C98004101B90041304001B1002030B0000030BE
:100CA800AF000030AE0041014B084001B5004101E2
:100CB8004A084001B400410149084001B30041011C
:100CC80048084001B2008A311522803140013108BC
:100CD8004101CB00400130084101CA0040012F0802
:100CE8004101C90040012E084101C800FF30A0079A
:100CF800FF30A13D0130B7070030B83D3808803AD1
:100D08004001E30041012E08803A40016302031DBF
:100D1800902E41012D0837020318932E942EA42EED
:100D280041014708803A4001E30080306302031D17
:100D3800A02E4B3041014602031CA32EA42E3C2DAD
:100D48004F304101B7000030B8003708A03E860098
:100D5800013087008101A0304001E30041014608CD
:100D680040016302410137074001A000A030A10003
:100D7800410147084001A300410146084001A20083
:100D880091314E218031410146083702C60047089B
:100D9800383BC7004108031DD22ED42E0130D52E72
:100DA80000304001E300E40163084101B70040015D
:100DB80064084101B80041080319E32EE42EEF2E20
:100DC800FF30C607FF30C73D4608A03E8600013009
:100DD8008700410881003708B1023808B23B40015A
:100DE8005D08B2005C08B10041014608A03E400120
:100DF800B300410132084001B5004101310840010A
:100E0800B4009231092280310800420131084001C2
:100E1800DB00420130084001DA0042012F0840019E
:100E2800D90042012E084001D8004B08DB004A08CF
:100E3800DA004908D9004808D8005808CC005908F1
:100E4800CD005A08CE005B08CF001730CF36CE0C45
:100E5800CD0CCC0C890B2A2FFF304C05D00000306C
:100E68004D05D1005008813ED600FF30513DD700D6
:100E78005708803ACC0080304C02031D452F1730AC
:100E88005602031C482F492F4A2FF32F4001D71B26
:100E98004E2F4F2FAC2FFF30CC00FF30CD007F30CE
:100EA800CE000030CF00560A5D2FCF37CE0CCD0CC8
:100EB800CC0C890B592F4F08D5004E08D4004D088B
:100EC800D3004C08D20058085205CC0059085305E5
:100ED800CD005A085405CE005B085505CF004F08D1
:100EE8004E044D044C04031D7A2F7B2F7C2F492F71
:100EF8005808CC005908CD005A08CE005B08CF002E
:100F08001F30CF36CE0CCD0CCC0C890B852F4F085B
:100F18004E044D044C040319922F932F9B2F520813
:100F2800D8075308D93D5408DA3D5508DB3D520926
:100F3800CC005309CD005409CE005509CF004C0808
:100F4800D8054D08D9054E08DA054F08DB05EB2F03
:100F58005808CC005908CD005A08CE005B08CF00CD
:100F68001F30CF36CE0CCD0CCC0C890BB52F4F08CB
:100F78004E044D044C04031DC22FC32FCC2F003048
:100F8800DB000030DA000030D9000030D800EB2F49
:100F98005808CC005908CD005A08CE005B08CF008D
:100FA8000130CC35CD0DCE0DCF0D890BD52F4F0887
:100FB8004E044D044C040319E22FE32FEB2FBF30EE
:100FC800DB008030DA000030D9000030D8005B0840
:100FD800CB005A08CA005908C9005808C8000800B8
:100FE800400123082204210420040319FC2FFD2FAB
:100FF800FF2F8030A30608004E010C100B140030A0
:10100800F4000030F5009F31D027883108004001F6
:10101800BB1B0F281128013012280030C300F81F0D
:10102800162817281C280130C1000030C2002028CB
:101038007808C2007708C100420137084001C000A3
:10104800420136084001BF00430803192C282D2807
:101058004128FF30BF07FF30C03D4308031D352836
:1010680036283B282B30BD000030BE003F282D30ED
:10107800BD000030BE003D08C3004F30C400003042
:10108800C5004301EF018128FF304001C407FF304C
:10109800C53D4408A03E8600013087000A30A00004
:1010A8000030A1003B08A3003A08A20093318C232A
:1010B800883140012108A5002008A40090317C2037
:1010C800883140012408303E8100FF30C107FF30DD
:1010D800C23DFF30BF07FF30C03D0A30A0000030DE
:1010E800A1003B08A3003A08A2009331DE2388310F
:1010F80040012108BB002008BA0040014508803A99
:10110800BC0080303C02031D8B2801304402031CC4
:101118008E288F28A32840013A083B04031D9528F0
:10112800962848284208803ABC0080303C02031DBB
:101138009F28013041020318A228A328482840010B
:1011480043080319A828A928B428FF30C407FF308A
:10115800C53D4408A03E8600013087004308810051
:101168003908B2003808B1004408A03EB30040086E
:10117800B5003F08B40092310922883108004001C7
:10118800690886008701403FEB00413FEC006B088F
:1011980084006C0885001200253A031DD428D52840
:1011A800FA2969088600870101308107413103184F
:1011B800810A4201B601B7010030F900FF30F7009B
:1011C800FF30F8004001690886008701403FEB00C6
:1011D800413FEC006B0884006C08850012002E3A31
:1011E800031DF728F8280C296908860087010130B3
:1011F800810741310318810A6908A4006A08A5001B
:1012080094313A24883140012508F8002408F70071
:10121800690886008701403F4101D100413FD20063
:1012280051088400520885001200643A03191D29E8
:101238001E29282951088400520885001200693A9D
:10124800031D27292829562940016A088600870195
:1012580001088400850102308107003F4101CC006C
:10126800013FCD005108013E4001EB000030410133
:10127800523D4001EC006908860087016B08C03FB9
:101288006C08C13F6808B9006708B80041014D08FB
:101298004001BB0041014C084001BA0088310B20D5
:1012A8008831142A4001690886008701403F4101BE
:1012B800D100413FD200510884005208850000083F
:1012C800D00070290130D1070030D23D7B296C3025
:1012D800D0007B29D0017B2950084C3A0319662994
:1012E8002A3A03196B290A3A031966296E29510803
:1012F8008400520885001200663A031D8429852956
:10130800F029AC2940016A08860087010108840099
:10131800850104308107003F4101CC00013FCD0029
:10132800023FCE00033FCF00B42940016A0886007F
:10133800870101088400850104308107003F4101CD
:10134800CC00013FCD00023FCE00033FCF00B429BF
:1013580050084C3A03199929203A03198629B429C7
:101368005108013E4001EB0000304101523D40016F
:10137800EC006908860087016B08C03F6C08C13F14
:10138800E62940016808DD006708DC0041014F08D4
:101398004001E10041014E084001E00041014D08D3
:1013A8004001DF0041014C084001DE0041015108C5
:1013B80084005208850000084001E2008031462080
:1013C8008831142A41015108840052088500000818
:1013D800663A0319C529F029400169088600870182
:1013E8000130810741310318810A142A69088600EF
:1013F8008701403FEB00413FEC006B0884006C081C
:1014080085000008ED00EE016D08A0006E08A1003F
:101418006808A3006708A200943196248831F0294F
:101428000800400135088039BF003535C600B41FB3
:101438001E2A1F2A202A461446080319242A252A68
:10144800352A460A031D292A2A2A322A0030B500DD
:101458000030B4000030B3000030B200B417B5015A
:101468003D2A0030B5000030B4000030B300003031
:10147800B20031088039BF063135C700B01F452A90
:10148800462A472A4714470803194B2A4C2A5C2A3C
:10149800470A031D502A512A592A0030B10000304A
:1014A800B0000030AF000030AE00B017B101642AC0
:1014B8000030B1000030B0000030AF000030AE00A6
:1014C800310830042F042E04031D6B2A6C2A832A4A
:1014D8000030B5000030B4000030B3000030B20076
:1014E8008030B4047F30B5043F08B5043508B10036
:1014F8003408B0003308AF003208AE00B82B4608F5
:10150800031D872A882A912A0030B1000030B000D4
:101518000030AF000030AE00B82B4608B600B70167
:101528003708B90047083602B800031CB903380861
:101538007F3EC0000030393DC1003508BE00340888
:10154800BD003308BC003208BB000030B5000030D5
:10155800B4000030B3000030B2000030C5000030E5
:10156800C4000030C3000030C200C701F72A470892
:101578000319BF2AC02ADA2A0130BB35BC0DBD0DBC
:10158800BE0D890BC12A0130B235B30DB40DB50DAE
:10159800890BC82AC51FD12AD22AD32A321401306E
:1015A800C235C30DC40DC50D890BD42A31083E02BE
:1015B800031DE82A30083D02031DE82A2F083C02D3
:1015C800031DE82A2E083B02031CEB2AEC2AF52A05
:1015D80045172E08BB022F08BC3B3008BD3B31081D
:1015E800BE3B0130C7071A304702031CFC2AFD2AFC
:1015F800BB2A3E083D043C043B040319042B052B7D
:101608001E2B42141E2B0130B235B30DB40DB50D8F
:10161800890B082BC51F112B122B132B32140130E9
:10162800C235C30DC40DC50D890B142BFF30C0077F
:10163800FF30C13DB41F212B222B072BC701C51F2B
:10164800262B272B432BFF304205B600FF304305DE
:10165800B700FF304405B8007F304505B9003908A8
:1016680038043704360403193A2B3B2B3E2B013040
:10167800C700432B321C412B422B432B3B2B4708E3
:101688000319472B482B6E2B0130B2070030B33DAE
:10169800B43DB53D351C512B522B6E2B3208B6008C
:1016A8003308B7003408B8003508B9000130BA006B
:1016B800B937B80CB70CB60CBA0B5C2B3908B500A7
:1016C8003808B4003708B3003608B2000130C00744
:1016D8000030C13D4108803AB60080303602031D13
:1016E800772BFF304002031C7A2B7B2B882BFF3093
:1016F8004001C0000030C1000030B5000030B40027
:101708000030B3000030B20040014108803AB60012
:1017180080303602031D922B013040020318952BAE
:10172800962BA22B4001C001C1010030B50000304A
:10173800B4000030B3000030B200BF0140014008DF
:10174800C600461CA82BA92BAB2BB417AD2B7F309A
:10175800B4054608B6000130B636890BB02B3608FA
:10176800B5003F08B5047A2A0800400123088039EB
:10177800B0002335B200A21FC22BC32BC42B3214D6
:1017880032080319C82BC92BD92B320A031DCD2BBC
:10179800CE2BD62B0030A3000030A2000030A100D1
:1017A8000030A000A217A301E12B0030A3000030F5
:1017B800A2000030A1000030A00027088039B10045
:1017C800310830060319E92BEA2BEB2B30172735A4
:1017D800B100A61FF02BF12BF22B3114310803199D
:1017E800F62BF72B072C310A031DFB2BFC2B042CA3
:1017F8000030A7000030A6000030A5000030A4008B
:10180800A617A7010F2C0030A7000030A600003053
:10181800A5000030A400320831020318142C152C3E
:10182800392C301F182C192C1B2C8030B00632088C
:10183800B3003108B2003308B1002008B30024080F
:10184800A0003308A4002108B3002508A10033082C
:10185800A5002208B3002608A2003308A600230822
:10186800B3002708A3003308A700B3013108A80074
:10187800A9012908AB0032082802AA00031CAB03FF
:101888002B08803AAC0080302C02031D4D2C1A30F6
:101898002A02031C502C512C872C400123082204B7
:1018A80021042004031D592C5B2C01305C2C0030D2
:1018B800B3000030A3000030A2000030A1000030C7
:1018C800A0003108B2008E2C331C6B2C6C2C762CAB
:1018D8003308A8000130A836890B6F2C2808013876
:1018E800B300782C0310B30C201C7B2C7C2C7D2C93
:1018F800B3170130A800A337A20CA10CA00CA80BA9
:101908007F2C0130B207400131083202031C8D2CB4
:101918008E2C682C301B912C922CCC2C3208031D59
:10192800962C972CA02C0030A3000030A200003089
:10193800A1000030A000C42D2408A0072508A13D5F
:101948002608A23D2708A33D231CAB2CAC2C562D02
:10195800331CAF2CB02CBA2C3308A8000130A836A1
:10196800890BB32C28080138B300BC2C0310B30C26
:10197800201CBF2CC02CC12CB3170130A800A337E2
:10198800A20CA10CA00CA80BC32C0130B207562D39
:101998002308803AA8002708803A2802031DDE2C75
:1019A80026082202031DDE2C25082102031DDE2C39
:1019B800240820020318E12CE22C172DFF30A80080
:1019C800FF30A900FF30AA00FF30AB002008240236
:1019D800AC002108253BAD002208263BAE002308B9
:1019E800273BAF002C08A8072D08A93D2E08AA3DC3
:1019F8002F08AB3D2B08A3002A08A2002908A10044
:101A08002808A0008030B0063303FF3AB30033083B
:101A1800031D0F2D102D1F2D0130A0070030A13DF3
:101A2800A23DA33D1F2D2408A0022508A13B26089E
:101A3800A23B2708A33B2308220421042004031DFA
:101A4800262D272D522D3308031D2B2D2C2D522DDD
:101A58000030A3000030A2000030A1000030A00038
:101A6800C42D0130A035A10DA20DA30D890B362D73
:101A7800B31F3F2D402D412D2014331C442D452DDF
:101A8800492D0314330DB3004B2D0310B30D320849
:101A980003194F2D502D522D0130B202A21F552D82
:101AA800562D352DB101B31F5A2D5B2D692D3308E5
:101AB8007F390319602D612D642D0130B100692D26
:101AC800201C672D682D692D612D310803196D2D96
:101AD8006E2D972D0130A0070030A13DA23DA33DFA
:101AE800231C772D782D972D2008A8002108A90000
:101AF8002208AA002308AB000130AC00AB37AA0CBF
:101B0800A90CA80CAC0B822D2B08A3002A08A20054
:101B18002908A1002808A000320A0319942D952D40
:101B2800972D0130B207320A03199B2D9C2DA12D48
:101B38003208031DA02DA12DAF2D0030A3000030C9
:101B4800A2000030A1000030A0003208031DAD2D16
:101B5800AE2DAF2DB001321CB22DB32DB52DA2176D
:101B6800B72D7F30A2053208A8000130A836890BAE
:101B7800BA2D2808A300B01FC22DC32DC42DA3174A
:101B8800080040012A088039B4002A35BA00A91F84
:101B9800CE2DCF2DD02D3A143A080319D42DD52D9A
:101BA800E42D3A0A031DD92DDA2DE22D0030AA00C2
:101BB8000030A9000030A8000030A700A917EC2DBC
:101BC8000030AA000030A9000030A8000030A700AB
:101BD8002E088039B4062E35B500AD1FF42DF52D2D
:101BE800F62D351435080319FA2DFB2D0A2E350A62
:101BF800031DFF2D002E082E0030AE000030AD0072
:101C08000030AC000030AB00AD17122E0030AE0033
:101C18000030AD000030AC000030AB0035080319CF
:101C2800162E172E1C2E3A08031D1B2E1C2E252E91
:101C38000030AA000030A9000030A8000030A7003A
:101C4800FF2F2708F4002D089131B8218D31750830
:101C58004001C0007408BF003F08AF00B001B101E7
:101C6800B2013208B9003108B8003008B7002F08AF
:101C7800B6004008AF00B001B101B2013208BE00A1
:101C88003108BD003008BC002F08BB002808F4004C
:101C98002C089131B8218D3175084001C0007408B5
:101CA800BF003F08AF00B001B101B2012F08B6076D
:101CB8003008B73D3108B83D3208B93D4008AF009B
:101CC800B001B101B2012F08BB073008BC3D310893
:101CD800BD3D3208BE3D2908F4002B089131B821DA
:101CE8008D3175084001C0007408BF003F08AF007F
:101CF800B001B101B2012F08B6073008B73D31086D
:101D0800B83D3208B93D4008AF00B001B101B20199
:101D18002F08BB073008BC3D3108BD3D3208BE3D29
:101D28000830B635B70DB80DB90D890B952E2808B2
:101D3800F4002B089131B8218D3175084001C0009D
:101D48007408BF003F08B6074008B73D0030B83DEB
:101D5800B93D2708F4002C089131B8218D31750858
:101D68004001C0007408BF003F08B6074008B73DEF
:101D78000030B83DB93D0830B635B70DB80DB90DCE
:101D8800890BC02E2708F4002B089131B8218D311A
:101D980075084001C0007408BF003F08B607400836
:101DA800B73D0030B83DB93D2808F4002D08913101
:101DB800B8218D3175084001C0007408BF003F0884
:101DC800BB074008BC3D0030BD3DBE3D2908F400BE
:101DD8002C089131B8218D3175084001C000740874
:101DE800BF003F08BB074008BC3D0030BD3DBE3DBD
:101DF8002908F4002D089131B8218D31750840016A
:101E0800C0007408BF003F08AF004008B000B1012F
:101E1800B2010830AF35B00DB10DB20D890B0E2FE0
:101E28002F08BB073008BC3D3108BD3D3208BE3D18
:101E38003608AF003708B0003808B1003908B200DA
:101E48001830B236B10CB00CAF0C890B252F2F0807
:101E5800BB073008BC3D3108BD3D3208BE3D0830E7
:101E6800B635B70DB80DB90D890B342F3A083507BB
:101E7800AF00B001B00D2F08823EBF00FF30303DEB
:101E8800C0005D2F0130BB35BC0DBD0DBE0D890BEB
:101E9800472FB91F502F512F522F3B140130B63501
:101EA800B70DB80DB90D890B532FFF30BF07FF30A1
:101EB800C03DBD1F602F612F462FB501B91F652F8B
:101EC800662F822FFF303605AF00FF303705B00090
:101ED800FF303805B1007F303905B20032083104CF
:101EE80030042F040319792F7A2F7D2F0130B50084
:101EF800822F3B1C802F812F822F7A2F35080319C0
:101F0800862F872FAD2F0130BB070030BC3DBD3D6C
:101F1800BE3D3E1C902F912FAD2F3B08AF003C08D3
:101F2800B0003D08B1003E08B2000130B300B2373E
:101F3800B10CB00CAF0CB30B9B2F3208BE003108AC
:101F4800BD003008BC002F08BB000130BF070030BF
:101F5800C03D4008803AAF0080302F02031DB62FE5
:101F6800FF303F02031CB92FBA2FC42F7F30400126
:101F7800BE008030BD000030BC000030BB00F52F33
:101F880040014008803AAF0080302F02031DCE2F59
:101F980001303F020318D12FD22FDD2F003040012E
:101FA800BE000030BD000030BC000030BB00B401F2
:101FB800F52F40013F08BA00FF30BB05FF30BC05D4
:101FC8007F30BD050030BE053A1CEB2FEC2FED2FFE
:101FD800BD173A08AF000130AF36890BF02F2F0834
:101FE800BE003408BE043E08AA003D08A9003C080B
:101FF800A8003B08A7000800640080010131890B94
:10200800012800349F317727903190318E2090310C
:1020180000300800603051018D008F0191010630B9
:102028009300920108007408750403191C281D28E0
:10203800222875084101EB007408EA0008007408BA
:1020480075040319282829282E2875084201B90083
:102058007408B8000800803043018F0008309000F1
:102068009101920107308D009F31AC2790314301D7
:1020780090160800F4014E010F1E432844284B28EF
:1020880042019E1E482849284B280130F400740854
:102098000800F50090313E209031003A0319552888
:1020A80056284E287508F4009F31B0279031080053
:1020B80090310E2090319231B12290319031F1203F
:1020C800903190312F2090318831002090310800D4
:1020D800DC304101E0000030D300D4005B08D600BA
:1020E8005A08D500E030D7009131712190310800AD
:1020F8004001A51B8028812882288D282409A60054
:102108002509A700A60A0319A70A2608A400270874
:10211800A50008004201A0010030A200FF30A10084
:10212800A301A401A701A801AD019F317427903133
:102138009F31712790319F319027903108004001DD
:10214800A31BA728A828A928B8282009A000210986
:10215800A1002209A2002309A300A00A0319A10AC9
:102168000319A20A0319A30A080074084001A2006F
:102178002208860001308700A20A7608A1007508A7
:10218800A000F50A0319F60A200884002108850032
:102198000008C03F8908031DD228D328BC2808009E
:1021A80006304201AD000330AC009F3171279031F9
:1021B80042012D08F200F301F235F30D30307207B9
:1021C80084001830733D80388500013F8A00003F45
:1021D8000A0090314201AD000800483042019F00DA
:1021E80090309D0026309E0040309B0003309C00BC
:1021F8000030F4000030F5009031172090310030A5
:10220800F4000030F5009031232090314201BA01EA
:10221800BB01080080304001C4064808A3004708F5
:10222800A2004608A1004508A0004408A7004308EA
:10223800A6004208A5004108A4008B31B9239131BA
:1022480040012308C4002208C3002108C200200856
:10225800C1000800F401F5014001201C342935298A
:1022680039292208F4072308F53D0130A235A30DCA
:10227800890B3A290130A136A00C890B3F29200887
:102288002104031D4829492930297508A10074082B
:10229800A000080040012108F6002008F500642984
:1022A80076088600013087000108F4000130F6073F
:1022B8007508860001308700740881000130F50731
:1022C8000130A2020030A33B220A031D6F29230A12
:1022D800031D6F2970295429080041015608D900A7
:1022E8005508D800872954084001E80041015308DF
:1022F8004001E700D830E900410157084001EA00F1
:102308008831C3209131410158088400590885005B
:102318001200031D902991297729D301D4010800BF
:102328004001AF01B001AB292E08AC00AD012C086B
:10233800A0002D08A1002B08A3002A08A2009431B0
:102348009624913101304001AF070030B03D290893
:102358002F078600013087000108AE002E08031DF4
:10236800B629B729982908004001A600A201A301AF
:102378007408A000A1012008A4002108A500261CBB
:10238800C629C729CB292408A2072508A33D01305F
:10239800A435A50D890BCC290310A60C2608031D0E
:1023A800D629D729C3292308F5002208F4000800F4
:1023B8004201250826040319E229E329F7290130F7
:1023C800A5020030A63B23088600240887000108E0
:1023D8009F31B427913101304201A3070030A43D59
:1023E8000330F100072A2B080319FB29FC29032ACB
:1023F800AB019F31832791310130F100072A9031D9
:1024080006209131F100710808004001B51F0D2A1E
:102418000E2A102AB401B501B601B701242A2030CA
:102428004001A0000030A1003208A3003108A2003A
:1024380094319624923101304001B6070030B73DFF
:102448003708803AF6003508803A7602031D2E2AAE
:1024580034083602031C312A322A132A4001330871
:10246800A9003208AB003108AA00913194219231B9
:1024780008000430F0009F3198279231003A031980
:10248800462A472A722A420129082A0403194D2A92
:102498004E2A5F2A27088600280887009F317A2756
:1024A8009231810001304201A7070030A83D013078
:1024B800A9020030AA3B29082A040319642A652ABC
:1024C800692A9F3194279231752A9F31802792314A
:1024D8009F319C2792310730F000752A9F317D2764
:1024E800923170080800F4019F3186279231003A32
:1024F800031D7F2A802AAF2A01304201A000400133
:1025080021084201A200400120084201A100013037
:10251800AB00400122084201A3000130A4004001A1
:1025280024084201A600400123084201A5004001F9
:1025380025084201A7000130A800400127084201F0
:10254800AA00400126084201A900AC019F31F127E9
:1025580092310130F4007408080040019801D0302D
:1025680099009A013F30920070309300FF30940038
:1025780037307E01B800C301FF30CE00B9015030BA
:10258800C400CF01BA01C501D0013730BB00F0301B
:10259800C600FF30D1003F30BC00F030C700FF302C
:1025A800D2000D307D01CB000F307E019F000E3030
:1025B8007D01C50013307E019E000C307D01C600F0
:1025C80014307E019C00BD01BE01BF01C801C901D4
:1025D800CA01D301D401D50108009F317427923173
:1025E80043010F1EF82AF92AFD2A90318E209231D4
:1025F800282B9F31EA279231003A0319042B052B27
:10260800132B9F31CA279231003A03190C2B0D2B3B
:10261800132B05304201AD000130AC00282B9F314F
:10262800B9279231003A03191A2B1B2B282B9F31FB
:10263800CA279231003A0319222B232B282B053065
:102648004201AD000230AC0042012D08F200F30156
:10265800F235F30D3030720784001830733D80383E
:102668008500013F8A00003F0A0093314201AD0016
:102678000800003040012005A80000302105A9000D
:1026880080302205AA007F302305AB002B082A04DE
:1026980029042804031D512B522B5A2B0030A30068
:1026A8000030A2000030A1000030A0000030240556
:1026B800A80000302505A90080302605AA007F3033
:1026C8002705AB002B082A0429042804031D6D2BB9
:1026D8006E2B762B0030A7000030A6000030A50036
:1026E8000030A40027082306031D842B2608220691
:1026F800031D842B25082106031D842B240820068E
:102708000319872B882B8A2B03108B2B03140800A3
:10271800F5014001A31F912B922B992BA209A30924
:10272800A20A0319A30A0130F500A11F9C2B9D2BB7
:10273800A22BA009A109A00A0319A10A20082104B3
:102748000319A72BA82BCF2B0130F400B22B013093
:10275800A035A10D890BAC2B0130F407A11FB52BB7
:10276800B62BAB2B21082302031DBC2B2008220209
:10277800031CBF2BC02BC42B2008A2022108A33B9B
:102788000130A136A00C890BC52B0130F402031DC2
:10279800CE2BCF2BB62B75080319D32BD42BD92BC3
:1027A800A209A309A20A0319A30A2308A10022085F
:1027B800A00008004001A501A11FE32BE42BEB2B8F
:1027C800A009A109A00A0319A10A0130A500A31FA5
:1027D800EE2BEF2BF62BA209A309A20A0319A30AD1
:1027E8000130A506A601A701200821040319FD2B25
:1027F800FE2B2B2C0130A400082C0130A035A10D94
:10280800890B022C0130A407A11F0B2C0C2C012CC6
:102818000130A635A70D890B0D2C21082302031DB5
:10282800172C20082202031C1A2C1B2C202C2008F1
:10283800A2022108A33B26140130A136A00C890B63
:10284800212C0130A402031D2A2C2B2C0C2C25082A
:1028580003192F2C302C352CA609A709A60A031911
:10286800A70A2708A1002608A00008004001AA011D
:10287800AB01240886008701403FA600413FA7001E
:10288800260884002708850012002A3A031D4D2CCB
:102898004E2C7D2C240886008701013081074131A8
:1028A8000318810A2508860087010108840085012C
:1028B80002308107003FAA00013FAB00912C2B0892
:1028C800A1002A08A0000A30A2000030A30091311C
:1028D8002E219431400129082007AA000030213D0B
:1028E800AB002408860087010130810741310318B5
:1028F800810A240886008701403FA600413FA700BF
:1029080026088400270885000008D03EA9000A3060
:102918002902031C902C912C632C2B08A5002A0853
:10292800A400080040012208230403199C2C9D2CB4
:10293800A32C22082304031DA22CA32CA82C2008B6
:1029480090314D209431F32C22088600230887000B
:102958004931160001040319B22CB32CD32C2208D8
:102968008600230887004931403FA400413FA50065
:1029780022088600230887004231403FA600413FD5
:10298800A7002708803AA8002508803A2802031DD6
:10299800CF2C240826020318D22CD32CF32C400168
:1029A8002208860023088700423122088400230871
:1029B8008500003FA400013FA500403F2407840094
:1029C800413F253D85002008800022088600230815
:1029D800870042310130810741310318810A08001C
:1029E80003104001220D230DF5007508031DFD2C71
:1029F800FE2C072D0030A3000030A2000030A100FB
:102A08000030A000622D2008A4002108A50022089B
:102A1800A6002308A7001F30A736A60CA50CA40CF7
:102A2800890B102D2408F400A217FF30A005FF30F1
:102A3800A105FF30A2050030A3059630F502F51F69
:102A4800262D272D3D2D7508803A973E03182D2DEC
:102A58002E2D2F2DFE2C0130A336A20CA10CA00C7C
:102A6800890B302D0130F507031D3B2D3C2D2F2DF3
:102A7800522D20307502031C422D432D4D2DFE2C66
:102A88000130A035A10DA20DA30D890B452D0130F4
:102A9800F5027508031D512D522D442D7408031994
:102AA800562D572D622DA009A109A209A309A00A34
:102AB8000319A10A0319A20A0319A30A080042016B
:102AC800C0019F31D62795314201C3009F31862727
:102AD8009531003A031D712D722D6A2D4F3040013A
:102AE800A0000030A1004030A2000130A300003057
:102AF800A4004130A5000230A6000030A7009231A2
:102B080077229531003A031D8A2D8B2D992D42305D
:102B18004101DA009830DB0090316C209531FF30AC
:102B28004101E100FF30E200D52D9F318627953124
:102B3800003A031DA02DA12D992D42014308031928
:102B4800A62DA72DB82D59304101DA009830DB00A9
:102B5800420143084101E300E4016308DC00640822
:102B6800DD0090316C209531420142084101E300BB
:102B7800E401420141084101E500E6016508E6007B
:102B8800E501630865044201BE004101640866046A
:102B98004201BF003F084101E20042013E084101F5
:102BA800E100080090315C2095318B170B179531A7
:102BB80063259531410162084201C900410161085C
:102BC8004201C800480A031DED2D490A031DED2DD9
:102BD800EE2DF72D8F304101DA009830DB0090316F
:102BE8006C209531422E43304001B1008030B00056
:102BF8000030AF000030AE00420148084001A0009C
:102C0800420149084001A100A201A3010030973107
:102C18005B27953140012308B5002208B40021083C
:102C2800B3002008B2008A311522953140013108DD
:102C38004201C700400130084201C60040012F0888
:102C48004201C50040012E084201C4008230410102
:102C5800DA009830DB00420147084101DF004201F9
:102C680046084101DE00420145084101DD004201FC
:102C780044084101DC0090316C2095312930410134
:102C8800E9009630E8007F30890B482EE80B482E83
:102C9800E90B482EDB2D80312828420135084001F8
:102CA800AF00420134084001AE0042013308400140
:102CB800AD00420132084001AC002308AF002208F1
:102CC800AE002108AD002008AC002C08A4002D0897
:102CD800A5002E08A6002F08A7001730A736A60CB7
:102CE800A50CA40C890B722EFF302405AA00003015
:102CF8002505AB002A082B04031D832E842EA52E40
:102D08002C08A4002D08A5002E08A6002F08A7004F
:102D18000130A435A50DA60DA70D890B8D2E27080A
:102D2800260425042404031D9A2E9B2EA02E02306F
:102D3800A0000030A100CF2E0330A0000030A10079
:102D4800CF2E2A0A2B04031DAA2EAB2ECB2E2C081D
:102D5800A4002D08A5002E08A6002F08A7000930FA
:102D6800A435A50DA60DA70D890BB42E270826049A
:102D7800250424040319C12EC32E0130C42E0030AB
:102D8800A800A9012808A0002908A100CF2E043016
:102D9800A0000030A1000800003040014105C90032
:102DA80000304205CA0080304305CB007F3044051F
:102DB800CC004C084B044A044904031DE42EE52EBC
:102DC800ED2E0030C4000030C3000030C2000030D7
:102DD800C10000304505C90000304605CA008030F2
:102DE8004705CB007F304805CC004C084B044A040B
:102DF8004904031D002F012F092F0030C80000309F
:102E0800C7000030C6000030C500C41F0C2F0D2FAE
:102E1800252F0030C9000030CA000030CB008030B8
:102E2800CC004108C9024208CA3B4308CB3B4408CE
:102E3800CC3B4C08C4004B08C3004A08C2004908F0
:102E4800C100C81F282F292F412F0030C90000308A
:102E5800CA000030CB008030CC004508C9024608C3
:102E6800CA3B4708CB3B4808CC3B4C08C8004B083A
:102E7800C7004A08C6004908C5008030C40680302B
:102E8800C80648084402031D532F47084302031D80
:102E9800532F46084202031D532F450841020318C9
:102EA800562F572F592F03105A2F0314080040018B
:102EB800A80028080319612F622F762FA31F652FFA
:102EC800662F762F2009AA002109AB002209AC0041
:102ED8002309AD00AA0A0319AB0A0319AC0A03199E
:102EE800AD0A7E2F2308AD002208AC002108AB00F4
:102EF8002008AA002308220421042004031D852F8A
:102F0800862F8F2F0030A3000030A2000030A100D0
:102F18000030A000FF2F9630A9009B2F0130A90791
:102F28000130AD36AC0CAB0CAA0C890B952FFE30DA
:102F38002D05031DA02FA12F922FB12F0130A90716
:102F48000130AA070030AB3DAC3DAD3D0130AD3698
:102F5800AC0CAB0CAA0C890BAB2FFF302D05031D55
:102F6800B62FB72FA22FC12F0130A9020130AA35E1
:102F7800AB0DAC0DAD0D890BBB2FAC1BC42FC52FF2
:102F8800CB2F023029020318CA2FCB2FB82F2918AC
:102F9800CE2FCF2FD72FFF30AA05FF30AB057F30BC
:102FA800AC05FF30AD050310A90C2908A400A50144
:102FB800A601A7011830A435A50DA60DA70D890BEC
:102FC800DF2F2408AA042508AB042608AC04270828
:102FD800AD0428080319F12FF22FF72FA31FF52F9F
:102FE800F62FF72FAD172D08A3002C08A2002B08E9
:102FF800A1002A08A0000800F1341034003400347D
:1030080000340034B0341F34003400343E341034FB
:103018000034003400340034003400340034003408
:1030280000340034003400340034003400340034F8
:1030380000340034003400340034003400340034E8
:10304800003400340034003417341034233410347E
:103058000034003400340034A0341F34F8341F34F2
:10306800DC341F34DC3411343D341234BE341F34A4
:10307800C4341F3406341034E3341F344934323432
:10308800433420345734723469347434653420340A
:1030980052346534613464342034453472347234C3
:1030A8006F3472340D340A34003445347234723457
:1030B8006F34723420344F3463346334753472346B
:1030C8007234653464343A342034253464340D342D
:1030D8000A3400342F3410340034003400340034FF
:1030E800003400347734123400340034D6341F34BA
:1030F80086341F34003400340034003454346534CA
:103108006D3470343A34203425342E3432346634F5
:103118000D340A34003449343234433420344534CD
:0E312800723472346F3472340D340A34003451
:103EE2004E018F1008004E010F10080043011115FA
:103EF200080043010C080800430191150800430122
:103F020091100800430191140800420120080800A2
:103F12004301111408004301901290160800430156
:103F22009013101308004301911211160800430167
:103F32000F080139080043019116111608004201C9
:103F4200A001083008009031D4209F31080092313E
:103F5200F1229F3108004E011914991408007408C7
:103F620042019A000800F000700843018C0008002A
:103F720043010F0E890C01390800903106209F3150
:103F8200F000700808009F31E3279F31F0007008AD
:103F920008004301110E890C890C013908007508CB
:103FA2004101ED007408EC00080042012C08F40005
:103FB200AC0174080800420121359F31B4279F31BA
:103FC200033008009F318C279F314201A00100304D
:103FD2000800031043018F1E03140030093D08003E
:103FE2009F3189279F3102304201AD00080003143E
:103FF2004201210D9F31B4279F31043008006934FA
:0E4002006E34663400346E3461346E34003433
:020000040001F9
:0A000E008C3FFF3F9F3FFF3FFF3F85
:00000001FF
